:020000040800F2
:1000000058160020F9190008591A0008591A000852
:10001000591A0008591A0008591A0008000000006F
:10002000000000000000000000000000591A000855
:10003000591A000800000000591A0008451B000862
:10004000591A0008591A0008591A0008591A0008C4
:10005000591A0008591A0008591A0008591A0008B4
:10006000591A0008591A0008591A0008591A0008A4
:10007000591A0008591A0008591A0008591A000894
:10008000591A0008591A0008591A0008591A000884
:1000900079220008591A0008591A0008591A00084C
:1000A000591A0008591A0008591A0008591A000864
:1000B000591A0008591A0008591A0008591A000854
:1000C000591A0008591A0008591A0008591A000844
:1000D000591A0008591A0008591A0008591A000834
:1000E000591A0008591A0008591A0008000000009F
:1000F0000000000000000000000000000000000000
:1001000000000000000000005FF808F180B582B038
:1001100000AF0346FB80FB88002B05D1084B1B6812
:1001200001221A82002306E0064B1B681B689847D1
:10013000034B1B680A3318460837BD4680BD00BF15
:10014000081200200412002080B500AF0F4B1B687E
:10015000DA780F4B5B789A4215D80C4B1B689B786A
:10016000002B10D1094B1B689B88002B0BD1074B30
:100170001B68064A1268D2789A72064B1B685B6845
:100180009847002300E00223184680BD0812002093
:10019000380000200412002080B582B000AF034672
:1001A000FB80FB88002B05D1084B1B6801221A82BB
:1001B000002306E0064B1B689B689847034B1B68AF
:1001C0000C3318460837BD4680BD00BF081200201A
:1001D0000412002080B582B000AF1E4B1B689B69E3
:1001E0001D4A126851791C4A1268D2780846114695
:1001F00098470346FB71184B1B689B7A002B23D052
:10020000FB79002B09D1144B1B681B79002B04D1FF
:10021000114B1B689B78002B01D0022315E0FB7962
:10022000002B11D10D4B1B68DB6898470A4B1B68EC
:10023000094A12685279DA72074B1B68064A12683B
:10024000D2781A73002300E0022318460837BD460F
:1002500080BD00BFE0110020081200200412002021
:1002600080B584B000AF0346FB80FB88002B05D12E
:10027000464B1B6802221A82002383E0444B002273
:100280001A80424B1B681B7803F07F03002B2CD194
:100290003E4B1B685B7AFB73FB7B03F02003002B58
:1002A00007D03B4B1B7843F00203DAB2384B1A708D
:1002B00006E0374B1B7823F00203DAB2344B1A7096
:1002C000FB7B03F04003002B07D0314B1B7843F03E
:1002D0000103DAB22E4B1A704FE02D4B1B7823F03E
:1002E0000103DAB22A4B1A7047E0284B1B681B78CF
:1002F00003F07F03012B01D1254B43E0234B1B6807
:100300001B7803F07F03022B35D1204B1B685B79F0
:10031000BB73BB7B03F00F037B73BB7B5BB2002B18
:1003200013DA7B7B9B0003F1804303F5B8431B6822
:100330009BB203F03003102B1CD1154B1B7843F0FC
:100340000103DAB2124B1A7017E07B7B9B0003F1BA
:10035000804303F5B8431B689BB203F44053B3F5E5
:10036000805F07D10A4B1B7843F00103DAB2084BD8
:100370001A7002E001E0002304E0064B1B681B69D1
:100380009847034B18461037BD4680BD0812002021
:10039000D00900200412002090B587B000AF6F4B49
:1003A0001B681B7803F07F033B613B69002B0AD17C
:1003B0006A4B1B68694A1268527A22F02002D2B254
:1003C0005A720023C6E03B69022B40F0C280634BA7
:1003D0001B685B88002B04D1604B1B681B79002BCA
:1003E00001D00223B6E05E4BFB605C4B1B685B797F
:1003F000BB60BB6823F080037B607B683B60574B2E
:100400001B685B79DBB25BB2002B0BDA3B689B00AD
:1004100003F1804303F5B8431B689BB203F030033C
:100420007B610AE03B689B0003F1804303F5B8431E
:100430001B689BB203F440537B61FB681B781A4630
:100440007B689A4207D97B69002B04D0434B1B6819
:100450009B7A002B01D102237CE0BB6803F0800370
:10046000002B17D03B689B0003F1804303F5B84392
:100470001B689BB203F03003102B64D13B68DBB2E6
:10048000184601F07FF93B68DBB21846302101F0D5
:1004900067F858E03B689B0003F1804303F5B843DD
:1004A0001B689BB203F44053B3F5805F4BD13B68AC
:1004B000002B26D13B68DAB22A4B93F82C30104639
:1004C000194601F021FA3B689B0003F1804303F5D4
:1004D000B8431B689BB223F4804323F070039CB2A3
:1004E00084F480539CB284F400539CB23B689B001C
:1004F00003F1804303F5B8431B4A224392B21A60CA
:1005000021E03B68DBB2184601F00EF93B689B0026
:1005100003F1804303F5B8431B689BB223F4804387
:1005200023F070039CB284F480539CB284F4005393
:100530009CB23B689B0003F1804303F5B8430A4A31
:10054000224392B21A60094B1B685B6998470023EB
:1005500000E0022318461C37BD4690BD081200205B
:10056000380000203C0000208080FFFF04120020A3
:1005700090B585B000AF404B1B685B79BB60BB6832
:1005800023F080037B607B683B603B4B1B685B799F
:10059000DBB25BB2002B0BDA3B689B0003F18043BC
:1005A00003F5B8431B689BB203F03003FB600AE01D
:1005B0003B689B0003F1804303F5B8431B689BB283
:1005C00003F44053FB602D4B1B781A463B689A425C
:1005D0000CD9294B1B685B88002B07D1FB68002BCB
:1005E00004D0254B1B689B7A002B01D102233EE0EF
:1005F000BB6803F08003002B1AD03B689B0003F11B
:10060000804303F5B8431B689BB223F4E04323F017
:1006100040039CB284F010039CB23B689B0003F142
:10062000804303F5B843164A224392B21A6019E098
:100630003B689B0003F1804303F5B8431B689BB202
:1006400023F4804323F070039CB284F480539CB263
:100650003B689B0003F1804303F5B843084A2243FB
:1006600092B21A60074B1B689B6998470023184693
:100670001437BD4690BD00BF08120020380000208E
:100680008080FFFF0412002080B500AF074B1B687D
:10069000064A1268527A42F02002D2B25A72044BD1
:1006A0001B68DB6998470023184680BD08120020AC
:1006B0000412002080B485B000AF03463960FB808F
:1006C0000D4B1B685B8AFB60FB88002B0AD10A4B31
:1006D0001B683A689188FA6892B28A1A92B21A82B2
:1006E000002303E03B681A68FB681344184614377C
:1006F000BD465DF8047B70470812002080B584B0C9
:1007000000AF3A4B1B681033BB60BB681B887B6033
:10071000BB689B68002B2ED07B68002B2BD0BB685E
:100720009B88FB60FA687B689A4201D97B68FB6012
:10073000BB689B68FA6892B2104698473860BB68FD
:100740001A88FB689BB2D31A9AB2BB681A80BB683E
:100750005A88FB689BB213449AB2BB685A80002047
:1007600001F09AF803461A46FB689BB238681146B6
:100770001A4601F00DFFBB681B88002B0AD01C4BEA
:100780004FF440521A800020002101F0A1F8194BCB
:1007900030221A80BB681A88BB689B889A4204D3AF
:1007A000124B1B6803221A721CE0BB681B88002BCB
:1007B00004D00E4B1B6805221A7213E0BB681B881D
:1007C000002B0FD1094B1B6806221A720A4B1B68BB
:1007D0009BB21A46094B13445B0000221A60054B7A
:1007E00030221A801037BD4680BD00BF081200209D
:1007F000D2090020D4090020505C004002300020C3
:1008000080B586B000AF3B4B1B681033FB60FB68C4
:100810001B88BB60374B1B681B7A7B61BB68002B56
:100820001ED17B69042B1BD1334B1B78012B11D1BB
:10083000324B1B689BB21A46314B13445B000022BB
:100840001A60304B30221A8004237B612A4B00222D
:100850001A7046E007237B612A4B10221A8040E081
:10086000FB689B883B61BA683B699A4201D80423C4
:1008700000E002237B613A69BB689A4201D9BB68F8
:100880003B61FB689B683A6992B210469847786072
:10089000002000F0E5FF03461A463B699BB27868EA
:1008A00011461A4601F03AFE3B699BB200201946F8
:1008B00001F00EF8FB681A883B699BB2D31A9AB212
:1008C000FB681A80FB685A883B699BB213449AB252
:1008D000FB685A800B4B30221A800B4B4FF440526E
:1008E0001A80044B1B687A69D2B21A721837BD4657
:1008F00080BD00BF081200206C090020505C004041
:1009000002300020D4090020D209002080B584B034
:1009100000AF0223FB735D4B1B685B787B605B4B16
:100920001B681B7803F07F03002B57D17B68092BD2
:1009300004D1FFF709FC0346FB7377E07B68052BC6
:100940001BD1524B1B68DB78DBB25BB2002B0EDB9A
:100950004E4B1B689B78002B09D14C4B1B689B8826
:10096000002B04D1494B1B689B7A002B02D0082333
:10097000BB6081E00023FB7358E07B68032B11D13F
:10098000424B1B68DB78012B09D1404B1B689B88CD
:10099000002B04D1FFF778FE0346FB7346E00223E9
:1009A000FB7343E07B68012B40D1384B1B68DB783D
:1009B000012B10D1354B1B689B88002B0BD1334B7F
:1009C0001B685B7A03F02003002B04D0FFF7E4FCE4
:1009D0000346FB732AE00223FB7327E02B4B1B68C3
:1009E0001B7803F07F03012B07D17B680B2B1DD1F4
:1009F000FFF7F0FB0346FB7318E0244B1B681B78E2
:100A000003F07F03022B0FD17B68012B04D1FFF78A
:100A1000C3FC0346FB7309E07B68032B06D1FFF799
:100A2000A7FD0346FB7301E00223FB73FB7B002B56
:100A30000ED0174B1B685B697A68D2B21046984794
:100A40000346FB73FB7B032B02D10923BB6013E03E
:100A5000FB7B002B02D00823BB600DE00623BB60AC
:100A60000C4B1B689BB21A460B4B13445B000022D5
:100A70001A600A4B30221A80044B1B68BA68D2B243
:100A80001A7200BF1037BD4680BD00BF081200209B
:100A9000E0110020505C004002300020D40900200A
:100AA00080B58AB000AF934B1B685B78BB610023B5
:100AB0007B6200237B61BB69062B23D18D4B1B68B6
:100AC0001B7803F07F03002B1BD18A4B1B689B789C
:100AD000FB74FB7C012B04D1874B1B68DB697B62B9
:100AE0000FE0FB7C022B04D1834B1B681B6A7B62EB
:100AF00007E0FB7C032B04D17F4B1B685B6A7B62A6
:100B0000B6E0B5E0BB69002B79D17A4B1B685B88F6
:100B1000002B74D1774B1B68DB88022B6FD1754B90
:100B20001B681B79002B6AD1724B1B681B7803F082
:100B30007F03002B07D16F4B1B689B88002B02D1D2
:100B40006E4B7B625AE06B4B1B681B7803F07F0394
:100B5000012B13D1684B1B689B69664A1268527956
:100B60001046002198470346002B47D1614B1B6874
:100B70009B7A002B42D0614B7B6279E05D4B1B6816
:100B80001B7803F07F03022B38D15A4B1B685B792B
:100B900003F00F03FB60574B1B685B7903F0700396
:100BA000BB60544B1B685B79DBB25BB2002B0BDA8A
:100BB000FB689B0003F1804303F5B8431B689BB2BD
:100BC00003F03003FB610AE0FB689B0003F1804304
:100BD00003F5B8431B689BB203F44053FB61484BD9
:100BE0001B781A46FB689A4208D9BB68002B05D1CE
:100BF000FB69002B02D0414B7B6239E038E0BB69D6
:100C0000082B09D13B4B1B681B7803F07F03002B9B
:100C10002ED13C4B7B622BE0BB690A2B28D1354B94
:100C20001B681B7803F07F03012B21D1314B1B681C
:100C30009B7A002B1CD02F4B1B685B88002B17D195
:100C40002C4B1B681B79002B12D12A4B1B68DB88AD
:100C5000012B0DD1284B1B689B69264A12685279DB
:100C60001046002198470346002B01D1264B7B629A
:100C70007B6A002B0FD01F4B1B687A6992B25A8295
:100C80001C4B1B687A6A9A617B6A00209847002394
:100C900087F8233013E0184B1B681B69154A12684C
:100CA000527810469847034687F8233097F8233048
:100CB000032B04D10F4B1B6809221A7277E00D4BEE
:100CC0001B681A8A4FF6FF739A4204D1094B1B68BE
:100CD00009221A726BE097F82330022B04D0054BDF
:100CE0001B681B8A002B11D1024B1B6808221A7249
:100CF0005DE000BF08120020E01100206102000842
:100D0000380000200D01000899010008294B1B68DC
:100D10001B78DBB25BB2002B40DA264B1B68DB880A
:100D20007B60244B1B681B8A1A467B689A4205D954
:100D3000204B1B687A6892B21A8225E01D4B1B6813
:100D40001A8A1C4B1B68DB889A421DD2194B1B6800
:100D50001A8A194B1B6893F82C309A4203D2174B0E
:100D600000221A7010E0134B1B681B8A124A12688B
:100D700092F82C2093FBF2F102FB01F29B1A002B5C
:100D800002D10E4B01221A700A4B1B680A4A1268E4
:100D900092F82C209A82FFF733FD07E0054B1B6881
:100DA00003221A72064B4FF440521A8000BF2837B4
:100DB000BD4680BD08120020E01100206C09002013
:100DC000D209002090B583B000AF0123FB80304BE7
:100DD0001B689BB21A462F4B13445B001B689BB2E7
:100DE0005B0003F1804303F5C0433B602A4B1B6863
:100DF0001B7A092B37D0284B1A683B68591C39607D
:100E00001B781370244B1A683B68591C39601B7897
:100E100053703A68FB885B0013443B601E4B1C68B0
:100E20003B689A1C3A601B88184600F0CDFD0346CB
:100E300063803A68FB885B0013443B60164B1C6878
:100E40003B689A1C3A601B88184600F0BDFD0346BB
:100E5000A3803A68FB885B0013443B600E4B1B6821
:100E60003A681288DA800C4B1B6801221A720A4B0E
:100E70001B68DB88002B02D1FFF748FD01E0FFF77C
:100E80000FFE00F08DF8034618460C37BD4690BDA6
:100E9000505C0040043000200812002080B582B071
:100EA00000AF1F4B1B681B7A7B607B68022B02D054
:100EB0007B68042B06D1FFF7A3FC194B1B681B7A38
:100EC0007B6021E07B68062B1CD1154B1B685B788F
:100ED000052B10D1124B1B681B7803F07F03002BEE
:100EE00009D10F4B1B68DB78184600F081F80D4BD9
:100EF0001B681B6A98470C4B1B689B689847082324
:100F00007B6001E008237B60054B1B687A68D2B2E6
:100F10001A7200F045F8034618460837BD4680BDF2
:100F20000812002004120020E011002080B582B0D9
:100F300000AF194B1B681B7A7B607B68022B02D0C9
:100F40007B68042B02D108237B6018E07B68032BAD
:100F500002D07B68052B06D1FFF7D0FB0E4B1B6838
:100F60001B7A7B600BE07B68072B06D10B4B1B6861
:100F7000DB68984708237B6001E008237B60064B11
:100F80001B687A68D2B21A7200F00AF80346184653
:100F90000837BD4680BD00BF08120020E0110020C8
:100FA00080B500AF0E4B93F82C300020194600F0AE
:100FB000ABFC0C4B1B681B7A082B06D10A4B4FF479
:100FC00080521A80094B10221A80064B1B681B7A2C
:100FD000092B14BF00230123DBB2184680BD00BFDC
:100FE0003C00002008120020D2090020D409002073
:100FF00080B485B000AF0346FB711A4B1B78BB6011
:101000000023FB601EE0FB68DBB29B0003F1804322
:1010100003F5B843FA68D2B2920002F1804202F5B9
:10102000B842126892B2114640F60F720A4042F47A
:10103000004242F08002F968C9B20A431A60FB68B4
:101040000133FB60FA68BB689A42DCD3064BFA793D
:1010500062F07F02D2B21A601437BD465DF8047B9D
:10106000704700BF380000204C5C004080B400AFE7
:10107000BD465DF8047B704790B583B000AF002398
:10108000FB8065E1854B1B889BB2DBB203F00F034D
:10109000DAB2834B1A70824B1B78002B40F00A8126
:1010A000804B1B689AB2804B1A807F4B1B889BB287
:1010B00003F030039AB27D4B1A807B4B1B889BB2A6
:1010C00003F440539AB2784B1A80764B1B689BB25C
:1010D0004BF6BF741C4084F4005484F02004714A21
:1010E000A1B2734B0B439BB213606C4B1B889BB23A
:1010F00003F01003002B3FD16A4A6A4B1B689BB276
:10110000194648F60F730B401360FFF7C7FE654B97
:101110001B689BB24BF6BF741C40634B1B889BB291
:1011200003F480539BB2002B01D084F480545E4BB7
:101130001B889BB203F400539BB2002B01D084F4B4
:1011400000545A4B1B889BB203F010039BB2002B38
:1011500001D084F01004554B1B889BB203F0200390
:101160009BB2002B01D084F020044E4AA1B2504B18
:101170000B439BB21360F6E04A4B1B689BB2FB80AB
:10118000FB889BB203F40063002B3FD0454A454BDC
:101190001B689BB2194640F68F730B401360FFF734
:1011A00011FE404B1B689BB24BF6BF741C403E4B7C
:1011B0001B889BB203F480539BB2002B01D084F4B4
:1011C0008054394B1B889BB203F400539BB2002B15
:1011D00001D084F40054354B1B889BB203F01003FC
:1011E0009BB2002B01D084F01004304B1B889BB2C3
:1011F00003F020039BB2002B01D084F02004294A85
:10120000A1B22B4B0B439BB21360ACE0FB889BB2AB
:101210009BB21BB2002B80F29B80224A214B1B68A1
:101220009BB2194640F68F730B401360FFF77EFEAA
:101230001C4B1B689BB24BF6BF741C401A4B1B889F
:101240009BB203F480539BB2002B01D084F48054F2
:10125000154B1B889BB203F400539BB2002B01D0AB
:1012600084F40054114B1B889BB203F010039BB213
:10127000002B01D084F010040C4B1B889BB203F0B0
:1012800020039BB2002B01D084F02004054AA1B2B8
:10129000074B0B439BB2136065E000BF5012002068
:1012A000E4110020005C0040D2090020D409002095
:1012B0008080FFFF2D4B1B789B0003F1804303F5DB
:1012C000B8431B689BB2FB80FB889BB29BB21BB2EE
:1012D000002B1BDA254B1B789B0003F1804303F5A1
:1012E000B843224A1278920002F1804202F5B842D5
:1012F000126892B2114640F68F720A401A601B4B78
:101300001B785A1E1A4B53F822309847FB889BB221
:1013100003F08003002B1BD0144B1B789B0003F1C0
:10132000804303F5B843114A1278920002F18042DB
:1013300002F5B842126892B2114648F60F720A409E
:101340001A600A4B1B785A1E0A4B53F822309847F2
:10135000094B1B689BB2094A194611809BB21BB20C
:10136000002BFFF68FAE0C37BD4690BDE411002078
:10137000DC000020C0000020445C0040501200202F
:1013800080B500AF154B154A126842F001021A6091
:10139000124A124B5968124B0B4053600F4A0F4BC5
:1013A0001B6823F0847323F4803313600B4B0B4AC8
:1013B000126822F480221A60084B084A526822F40C
:1013C000FE025A60054B4FF41F029A6000F00CF8C1
:1013D000044B4FF000629A6080BD00BF00100240D5
:1013E0000000FFF800ED00E080B500AF00F002F86B
:1013F00080BD00BF80B483B000AF00237B600023BA
:101400003B603A4B394A126842F480321A60374BDB
:101410001B6803F400333B607B6801337B603B68EF
:10142000002B03D17B68B3F5A06FF0D12F4B1B6865
:1014300003F40033002B02D001233B6001E00023C2
:101440003B603B68012B4BD1294B294A126842F083
:1014500010021A60264B264A126822F003021A6014
:10146000234B234A126842F002021A601F4B1F4AA4
:1014700052685A601D4B1D4A52685A601B4B1B4AEA
:10148000526842F480625A60184B184A526822F43B
:101490007C125A60154B154A526842F4E8125A60A1
:1014A000124B124A126842F080721A6000BF0F4B52
:1014B0001B6803F00073002BF9D00C4B0B4A5268E9
:1014C00022F003025A60094B084A526842F00202B5
:1014D0005A6000BF054B5B6803F00C03082BF9D181
:1014E0000C37BD465DF8047B704700BF001002401A
:1014F0000020024080B483B000AF0346FB80054A61
:10150000F9884FF6F8730B4013600C37BD465DF851
:10151000047B7047505C004080B483B000AF02464B
:101520000B46FA71BB80FB799B0003F1804303F506
:10153000B843FA79920002F1804202F5B84212688B
:1015400092B222F4EC4222F0700291B2BA880A43BD
:1015500092B292B21A600C37BD465DF8047B7047B8
:1015600090B482B000AF02460B46FA71BB80FB79A3
:101570009B0003F1804303F5B8431B689BB223F43F
:10158000E04323F040039CB2BB8803F010039BB2FE
:10159000002B02D084F010039CB2BB8803F0200320
:1015A0009BB2002B02D084F020039CB2FB799B00FD
:1015B00003F1804303F5B843034A224392B21A6011
:1015C0000837BD4690BC70478080FFFF90B482B062
:1015D00000AF02460B46FA71BB80FB799B0003F11A
:1015E000804303F5B8431B689BB223F4804323F088
:1015F00070039CB2BB8803F480539BB2002B02D0D3
:1016000084F480539CB2BB8803F400539BB2002B3C
:1016100002D084F400539CB2FB799B0003F1804319
:1016200003F5B843034A224392B21A600837BD4615
:1016300090BC70478080FFFF90B482B000AF03463B
:10164000FB71FB799B0003F1804303F5B8431B68F2
:101650009BB223F4E04323F040039CB284F01003D8
:101660009CB284F020039CB2FB799B0003F1804381
:1016700003F5B843034A224392B21A600837BD46C5
:1016800090BC70478080FFFF90B482B000AF0346EB
:10169000FB71FB799B0003F1804303F5B8431B68A2
:1016A0009BB223F4804323F070039CB284F48053F4
:1016B0009CB284F400539CB2FB799B0003F18043FD
:1016C00003F5B843034A224392B21A600837BD4675
:1016D00090BC70478080FFFF80B483B000AF0346AA
:1016E000FB71FB799B0003F1804202F5B842FB7964
:1016F0009B0003F1804303F5B8431B689BB223F4BE
:10170000F8731B051B0D9BB243F07F4343F47F032B
:1017100043F4004343F080039BB29BB213600C3749
:10172000BD465DF8047B704780B483B000AF0346CC
:10173000FB71FB799B0003F1804303F5B8431B6801
:101740009BB203F48043002B16D0FB799B0003F17E
:10175000804303F5B843FA79920002F1804202F522
:10176000B842126892B2114640F60F720A4042F433
:10177000404242F080021A600C37BD465DF8047B9F
:10178000704700BF80B483B000AF0346FB71FB79A4
:101790009B0003F1804303F5B8431B689BB203F041
:1017A0004003002B16D0FB799B0003F1804303F527
:1017B000B843FA79920002F1804202F5B842126809
:1017C00092B2114640F60F720A4042F4004242F0D3
:1017D000C0021A600C37BD465DF8047B704700BF3D
:1017E00080B483B000AF02460B46FA71BB800B4B4E
:1017F0001B689BB21A46FB79DB00134403F10053CC
:1018000003F540535B00BA88520892B252001A6046
:101810000C37BD465DF8047B704700BF505C00404C
:1018200080B483B000AF02460B46FA71BB800A4B0E
:101830001B689BB21A46FB79DB001A44074B134422
:101840005B00BA88520892B252001A600C37BD464B
:101850005DF8047B704700BF505C004004300020FE
:1018600080B483B000AF0346FB710A4B1B689BB288
:101870001A46FB79DB00134403F1005303F5405390
:101880005B001B689BB218460C37BD465DF8047BB5
:10189000704700BF505C004080B483B000AF034687
:1018A000FB71094B1B689BB21A46FB79DB001A449B
:1018B000064B13445B001B689BB218460C37BD46B1
:1018C0005DF8047B704700BF505C0040043000208E
:1018D00080B483B000AF02460B46FA71BB80084B60
:1018E0001B689BB21A46FB79DB001A44054B134474
:1018F0005B00BA881A600C37BD465DF8047B704700
:10190000505C00400230002080B485B000AF024639
:101910000B46FA71BB801B4B1B689BB21A46FB79C6
:10192000DB001A44184B13445B00BB60BB883E2BA2
:1019300012D9BB885B09FB81BB8803F01F03002B16
:1019400002D1FB89013BFB81FB899B0243F40043ED
:101950001A46BB681A600FE0BB885B08FB81BB8836
:1019600003F00103002B02D0FB890133FB81FB89CB
:101970009B021A46BB681A601437BD465DF8047BAB
:10198000704700BF505C00400630002080B483B038
:1019900000AF0346FB710A4B1B689BB21A46FB79EA
:1019A000DB001A44074B13445B001B689BB2C3F374
:1019B00009039BB218460C37BD465DF8047B70479F
:1019C000505C00400630002080B485B000AF034674
:1019D000FB80FB88FB73FB881B0A9BB29AB2FB7BE4
:1019E0001B029BB213439BB2BB81BB8918461437C1
:1019F000BD465DF8047B704780B582B000AF114BE7
:101A00007B60114B3B6007E03B681A1D3A607A68C7
:101A1000111D796012681A603A680C4B9A42F3D330
:101A20000B480C494FF000028842B8BF40F8042B25
:101A3000FFF6FAAFFFF7A4FC00F024FC0837BD4620
:101A400080BD00BFB4720008000000206C090020B7
:101A50006C0900205812002080B400AFFEE700BFE0
:101A600080B483B000AF03463960FB7197F907304B
:101A7000002B0BDA0D49FB7903F00F03043B3A68A6
:101A8000D2B21201D2B20B441A7609E0084997F992
:101A900007303A68D2B21201D2B20B4483F8002365
:101AA0000C37BD465DF8047B704700BF00ED00E0D9
:101AB00000E100E080B582B000AF78607B68B3F1F0
:101AC000807F01D3012311E00A4B7A6822F07F4224
:101AD000013A5A604FF0FF300F21FFF7C1FF054B6D
:101AE00000229A60034B07221A6000231846083729
:101AF000BD4680BD10E000E080B483B000AF7860E8
:101B0000064B7A681A6000BF044B1B68002BFBD1A0
:101B10000C37BD465DF8047B704700BF800900208C
:101B200080B400AF064B1B68002B04D0044B1B682D
:101B30005A1E034B1A60BD465DF8047B704700BF18
:101B40008009002080B500AFFFF7EAFF80BD00BF2D
:101B500080B500AF064B1A68064BA3FB02139B0926
:101B60001846FFF7A7FF0346002B00D0FEE780BD15
:101B700000000020D34D621080B483B000AF034654
:101B8000FB710C37BD465DF8047B704780B500AF34
:101B9000002000F091FB4FF40000012100F09AFBBF
:101BA00080BD00BF80B582B000AF4FF4C06000F0D0
:101BB00043FC14233B7101237B710023BB71012380
:101BC000FB713B1D184600F049FC0837BD4680BD3F
:101BD00080B582B000AF314B1B68B3F5006F02D106
:101BE0002E4B00221A602D4B1A682D4B1B689A420F
:101BF00003D12C4B00221A704DE0284B1A68284B59
:101C00001B689A4206D9254B1B68C3F50062264B18
:101C10001A6006E0224B1A68204B1B68D21A224B2E
:101C20001A60214B1B68402B11D91C4B1B68FB8091
:101C30004023BB80194B1B6803F14002174B1A600D
:101C4000194B1B68A3F14002174B1A600FE0134BAE
:101C50001B68FB80144B1B68BB80104B1A68124B2F
:101C60001B681A440D4B1A600F4B00221A600D4B73
:101C700001221A70FA880D4B1A44BB881046C02105
:101C80001A4600F04BFCBB8801201946FFF720FEE6
:101C90000120FFF7D1FC0837BD4680BD7409002044
:101CA000700900207C09002078090020DC09002050
:101CB00080B483B000AF0346FB710B4B1B680B4A2B
:101CC000F979D154084B1B685A1C074B1A60064B14
:101CD0001B68B3F5006F02D3034B00221A600C3768
:101CE000BD465DF8047B704770090020DC090020C8
:101CF00080B582B000AF786006E07B685A1C7A60DD
:101D00001B781846FFF7D4FF7B681B78002BF4D1B3
:101D10000837BD4680BD00BF80B584B000AF0E4B14
:101D20001B68FB600D4B1B68BB600D4B1B687B6029
:101D3000FA687B681344FB60FB68002B09D0F868E5
:101D40000849082200F012F8B8680749042200F098
:101D50000DF81037BD4680BDE8F7FF1FECF7FF1FF9
:101D6000F0F7FF1F160000202600002080B487B087
:101D700000AFF860B9601346FB710023FB750023C8
:101D8000FB7525E0FB681B0F092B0AD8FB7D5B0068
:101D9000BA681344FA68120FD2B23032D2B21A7053
:101DA00009E0FB7D5B00BA681344FA68120FD2B2F7
:101DB0003732D2B21A70FB681B01FB60FB7D5B00FF
:101DC0000133BA68134400221A70FB7D0133FB759E
:101DD000FA7DFB799A42D5D31C37BD465DF8047B6A
:101DE000704700BF80B483B000AF7860034B7A685F
:101DF0001A600C37BD465DF8047B704784090020EB
:101E000080B582B000AF03463960FB80064B1B688B
:101E1000002B00D105E0044B1B68FA881046396896
:101E200098470837BD4680BD8409002080B500AFC3
:101E3000FFF772FF054B1B6800229A7200F0AAF9A7
:101E400000F066FA024B00221A6080BD08120020E2
:101E50008C09002080B500AF364B1B6800229A72B7
:101E6000344B1B68344AD2795A72324B1B680022B9
:101E7000DA720020FFF73EFB00204FF40071FFF7FD
:101E80004BFB00201021FFF76BFB00204021FFF7E8
:101E9000C7FC00208021FFF7A3FC0020FFF71CFCFB
:101EA000264B93F82C3000201946FFF72DFD00201B
:101EB000FFF7EAFB01200021FFF72EFB0120C021E4
:101EC000FFF78EFC01202021FFF74AFB01200021B3
:101ED000FFF77CFB02204FF4C061FFF71DFB0220DF
:101EE0004FF48071FFF77CFC02200021FFF76EFBAE
:101EF00002202021FFF734FB03200021FFF70CFB19
:101F000003204FF48871FFF78BFC03204021FFF77B
:101F1000FBFC03204FF44051FFF758FB0320002146
:101F2000FFF71EFB0020FFF763F8054B01221A6044
:101F300080BD00BF08120020407000083C00002057
:101F40008C09002080B483B000AF074B7B607B68B6
:101F50009B7A002B02D0054B05221A600C37BD4638
:101F60005DF8047B704700BFE81100208C09002059
:101F700080B400AF034B04221A60BD465DF8047BB9
:101F8000704700BF8C09002080B400AF054B1B7860
:101F9000202B02D1034B00221A70BD465DF8047B52
:101FA000704700BF8809002080B400AFBD465DF8CF
:101FB000047B704780B584B000AF0346FB710023FB
:101FC000FB60FB79212B09D1164B1B681B7803F0B2
:101FD0007F03212B11D1144BFB600EE0FB79202BEA
:101FE0000BD1104B1B681B7803F07F03212B01D111
:101FF0000E4BFB600E4B20221A70FB68002B01D1A8
:1020000002230BE0074B1B68FA689A61054B1B68BB
:1020100000225A82FB680020984700231846103798
:10202000BD4680BD081200202D2100086121000856
:102030008809002080B483B000AF0346FB710C4BCD
:102040001B681B7803F07F03212B09D1FB79022B3E
:1020500001D1002305E0FB79222B01D1002300E010
:10206000022318460C37BD465DF8047B704700BF5D
:102070000812002080B582B000AF0346FB80FB88C9
:1020800018460449FEF716FB034618460837BD46B6
:1020900080BD00BF9000002080B582B000AF034635
:1020A000FB80FB8818460449FEF704FB03461846EC
:1020B0000837BD4680BD00BF9800002080B584B0C1
:1020C00000AF0346FB800B4B1B68DB78FB73FB7B8D
:1020D000042B01D9002309E0FB7BDA00064B1344F3
:1020E000FA8810461946FEF7E5FA034618461037F7
:1020F000BD4680BD08120020A000002080B483B03F
:1021000000AF02460B46FA71BB71BB79002B01D0C0
:10211000022305E0FB79012B01D9022300E0002313
:1021200018460C37BD465DF8047B704780B483B019
:1021300000AF0346FB80FB88002B05D1064B1B68D4
:1021400008221A82002300E0044B18460C37BD46D3
:102150005DF8047B704700BF0812002030000020AB
:1021600080B483B000AF0346FB80FB88002B05D111
:10217000064B1B6808221A82002300E0044B184615
:102180000C37BD465DF8047B704700BF0812002085
:102190003000002080B582B000AF0120FFF7ECFCDA
:1021A0000123FB800C4BFA881A600C4B00221A802A
:1021B000094B0A4A12881A60094B00221A60074B21
:1021C0004FF4E0521A80044B044A12881A6000232C
:1021D00018460837BD4680BD405C00400C12002008
:1021E000445C004080B500AF084B094A1A60074BB9
:1021F0001B6802221A72074B074A1A60074B084AEB
:102200001A60044B1B681B68984780BD08120020A9
:10221000E8110020E01100203C0000200412002002
:102220006C00002080B58CB000AF03463960FB80A5
:10223000FB8807F10C0210460E491A4601F0BAF964
:1022400007F10C031846FFF753FD0023FB6209E07A
:10225000FB6A3A6813441B781846FFF729FDFB6AAE
:102260000133FB62FA88FB6A9A42F1DC3037BD46E3
:1022700080BD00BF0471000880B500AF00F0B6F962
:1022800080BD00BF80B500AFFFF780FCFFF78AFC80
:10229000FFF7A8FF0648FFF7A5FDFFF759FC054823
:1022A000FFF726FD4FF49670FFF726FCF7E700BF17
:1022B000252200081C71000880B483B000AF78604C
:1022C000034B7A681A600C37BD465DF8047B704793
:1022D000D800424280B483B000AF78600B46FB70F8
:1022E000FB78002B06D0094B084AD1697A680A436B
:1022F000DA6106E0054B054AD1697A68D2430A40A3
:10230000DA610C37BD465DF8047B7047001002406F
:1023100080B400AF084B00221A60084B4FF406420D
:102320001A80074B054A12881A6000231846BD46DA
:102330005DF8047B704700BF445C00400C12002035
:10234000405C004080B584B000AF03463960FB714B
:102350000023FB60FB7903F07F03DBB21846FFF735
:1023600015FB0346FB60FB7903F07F03DBB21846E5
:10237000FFF792FA03461A46FB689BB2386811468B
:102380001A4600F005F9FB6818461037BD4680BDB7
:1023900080B485B000AF78600B4B1B68002B02D176
:1023A000094B0A4A1A60084B1B68FB60064B1A6807
:1023B0007B681A44044B1A60FB6818461437BD4604
:1023C0005DF8047B704700BF900900205812002080
:1023D00080B500AFFFF7FCFB80BD00BF80B582B0C9
:1023E00000AF03200749FFF7ADFF0346FB80FB88E2
:1023F00018460449FFF704FD0320FFF745F90837A5
:10240000BD4680BD1012002080B500AF084B1B6890
:10241000052B0BD1074B1B68591C064A1160052B75
:1024200004D1044B00221A60FFF7D2FB80BD00BF2D
:102430008C0900209409002080B483B000AF78603C
:10244000054A7B6843F0BF6343F40033D3600C3725
:10245000BD465DF8047B704700ED00E080B487B0B6
:1024600000AF786000237B6100233B610F23FB609A
:102470007B68DB78002B38D0264BDB68DB4303F42A
:10248000E0631B0A7B617B69C3F104033B617B69E9
:10249000FA6822FA03F3FB607B685B781A463B69B3
:1024A00002FA03F37B617B689B781A46FB68134052
:1024B0007A6913437B617B691B017B6116497B68E9
:1024C0001B787A69D2B20B4483F80023124B7A68E6
:1024D00012785209D2B27968097801F01F010120FF
:1024E00000FA01F143F822100EE00B4B7A681278E3
:1024F0005209D2B27968097801F01F01012000FA6F
:1025000001F1203243F822101C37BD465DF8047BF0
:10251000704700BF00ED00E000E100E080B489B04A
:1025200000AF786013460A467A803B803B880133CF
:102530005B107B617B8803F1005303F540535B0024
:10254000BB617B69FB611BE07B681B783B617B683F
:1025500001337B607B681B781B021A463B6913437F
:10256000FB60BB699A1CBA61FA6892B21A80BB69B7
:102570000233BB617B6801337B60FB69013BFB611C
:10258000FB69002BE0D12437BD465DF8047B704722
:1025900080B487B000AF786013460A467A803B80EB
:1025A0003B8801335B10FB607B8803F1005303F52C
:1025B00040535B003B61FB687B610EE07B685A1C0B
:1025C0007A603A69111D3961126892B21A807B688B
:1025D00001337B607B69013B7B617B69002BEDD123
:1025E0001C37BD465DF8047B704700BF80B500AF67
:1025F0001C4B1B689AB21C4B1A801B4B1B889BB24E
:1026000003F40072194B1B881340002B0CD0154BA0
:102610004FF6FF521A60164B1B78DBB20133DAB269
:10262000134B1A70FFF7F0FE0F4B1B889BB203F49D
:1026300000420E4B1B881340002B01D0FEF71CFDFF
:10264000094B1B889BB203F48062084B1B88134024
:10265000002B06D0034B4FF6FF321A60054B5B6828
:10266000984780BD445C0040501200200C120020AE
:10267000980900203C00002031F0004310B408D03D
:102680000F4AA3F5801494420AD804205DF8044B45
:10269000704700280CBF022003205DF8044B7047F0
:1026A000B3F5801F01D20320F7E7064A934201D019
:1026B0000020F2E7D0F1010038BF0020EDE700BFB5
:1026C000FFFFDF7F0000F07F81F0004102E000BFEC
:1026D00083F0004330B54FEA41044FEA430594EAE2
:1026E000050F08BF90EA020F1FBF54EA000C55EA1D
:1026F000020C7FEA645C7FEA655C00F0E2804FEAEE
:102700005454D4EB5555B8BF6D420CDD2C4480EACF
:10271000020281EA030382EA000083EA010180EAFF
:10272000020281EA0303362D88BF30BD11F0004F4D
:102730004FEA01314FF4801C4CEA113102D0404283
:1027400061EB410113F0004F4FEA03334CEA1333BE
:1027500002D0524263EB430394EA050F00F0A780D6
:10276000A4F10104D5F1200E0DDB02FA0EFC22FAD1
:1027700005F2801841F1000103FA0EF2801843FAC5
:1027800005F359410EE0A5F120050EF1200E012AB6
:1027900003FA0EFC28BF4CF0020C43FA05F3C018F4
:1027A00051EBE37101F0004507D54FF0000EDCF16D
:1027B000000C7EEB00006EEB0101B1F5801F1BD316
:1027C000B1F5001F0CD349085FEA30004FEA3C0C1A
:1027D00004F101044FEA445212F5800F80F09A8010
:1027E000BCF1004F08BF5FEA500C50F1000041EB14
:1027F000045141EA050130BD5FEA4C0C404141EB18
:10280000010111F4801FA4F10104E9D191F0000F3E
:1028100004BF01460020B1FA81F308BF2033A3F1C1
:102820000B03B3F120020CDA0C3208DD02F1140CB8
:10283000C2F10C0201FA0CF021FA02F10CE002F1F3
:102840001402D8BFC2F1200C01FA02F120FA0CFCEC
:10285000DCBF41EA0C019040E41AA2BF01EB045135
:10286000294330BD6FEA04041F3C1CDA0C340EDC33
:1028700004F11404C4F1200220FA04F001FA02F376
:1028800040EA030021FA04F345EA030130BDC4F134
:102890000C04C4F1200220FA02F001FA04F340EA29
:1028A0000300294630BD21FA04F0294630BD94F0DA
:1028B000000F83F4801306BF81F480110134013DC1
:1028C0004EE77FEA645C18BF7FEA655C29D094EA32
:1028D000050F08BF90EA020F05D054EA000C04BFB0
:1028E0001946104630BD91EA030F1EBF002100209B
:1028F00030BD5FEA545C05D14000494128BF41F03A
:10290000004130BD14F580043CBF01F5801130BD9D
:1029100001F0004545F0FE4141F470014FF0000028
:1029200030BD7FEA645C1ABF194610467FEA655CD9
:102930001CBF0B46024650EA013406BF52EA03357B
:1029400091EA030F41F4002130BD00BF90F0000F69
:1029500004BF0021704730B54FF4806404F13204A5
:102960004FF000054FF0000150E700BF90F0000F5E
:1029700004BF0021704730B54FF4806404F1320485
:1029800010F0004548BF40424FF000013EE700BF55
:1029900042004FEAE2014FEA31014FEA02701FBFE5
:1029A00012F07F4393F07F4F81F06051704792F0B7
:1029B000000F14BF93F07F4F704730B54FF4607431
:1029C00001F0004521F0004120E700BF50EA01027C
:1029D00008BF704730B54FF000050AE050EA010229
:1029E00008BF704730B511F0004502D5404261EB99
:1029F00041014FF4806404F132045FEA915C3FF4DA
:102A0000DCAE4FF003025FEADC0C18BF03325FEA72
:102A1000DC0C18BF033202EBDC02C2F1200300FA27
:102A200003FC20FA02F001FA03FE40EA0E0021FA4C
:102A300002F11444C1E600BF70B54FF0FF0C4CF436
:102A4000E06C1CEA11541DBF1CEA135594EA0C0FEC
:102A500095EA0C0F00F0DEF82C4481EA030621EA27
:102A60004C5123EA4C5350EA013518BF52EA033562
:102A700041F4801143F4801338D0A0FB02CE4FF014
:102A80000005E1FB02E506F00042E0FB03E54FF044
:102A90000006E1FB03569CF0000F18BF4EF0010E3C
:102AA000A4F1FF04B6F5007F64F5407404D25FEA38
:102AB0004E0E6D4146EB060642EAC62141EA5551EB
:102AC0004FEAC52040EA5E504FEACE2EB4F1FD0C2D
:102AD00088BFBCF5E06F1ED8BEF1004F08BF5FEAAB
:102AE000500E50F1000041EB045170BD06F000465D
:102AF00046EA010140EA020081EA0301B4EB5C040A
:102B0000C2BFD4EB0C0541EA045170BD41F4801101
:102B10004FF0000E013C00F3AB8014F1360FDEBF26
:102B2000002001F0004170BDC4F10004203C35DA02
:102B30000C341BDC04F11404C4F1200500FA05F385
:102B400020FA04F001FA05F240EA020001F0004226
:102B500021F0004110EBD37021FA04F642EB06019C
:102B60005EEA430E08BF20EAD37070BDC4F10C04C6
:102B7000C4F1200500FA04F320FA05F001FA04F28A
:102B800040EA020001F0004110EBD37041F1000176
:102B90005EEA430E08BF20EAD37070BDC4F1200581
:102BA00000FA05F24EEA020E20FA04F301FA05F2E9
:102BB00043EA020321FA04F001F0004121FA04F291
:102BC00020EA020000EBD3705EEA430E08BF20EA61
:102BD000D37070BD94F0000F0FD101F0004640009B
:102BE00041EB010111F4801F08BF013CF7D041EA1D
:102BF000060195F0000F18BF704703F00046520021
:102C000043EB030313F4801F08BF013DF7D043EAF1
:102C10000603704794EA0C0F0CEA135518BF95EAA7
:102C20000C0F0CD050EA410618BF52EA4306D1D12E
:102C300081EA030101F000414FF0000070BD50EA4D
:102C4000410606BF1046194652EA430619D094EAD7
:102C50000C0F02D150EA013613D195EA0C0F05D1C1
:102C600052EA03361CBF104619460AD181EA030115
:102C700001F0004141F0FE4141F470014FF00000CD
:102C800070BD41F0FE4141F4780170BD70B54FF068
:102C9000FF0C4CF4E06C1CEA11541DBF1CEA1355E8
:102CA00094EA0C0F95EA0C0F00F0A7F8A4EB0504CA
:102CB00081EA030E52EA03354FEA013100F08880C1
:102CC0004FEA03334FF0805545EA131343EA12638A
:102CD0004FEA022245EA111545EA10654FEA00263F
:102CE0000EF000419D4208BF964244F1FD0404F5F8
:102CF000407402D25B084FEA3202B61A65EB030554
:102D00005B084FEA32024FF480104FF4002CB6EB10
:102D1000020E75EB030E22BFB61A754640EA0C0090
:102D20005B084FEA3202B6EB020E75EB030E22BFD0
:102D3000B61A754640EA5C005B084FEA3202B6EB11
:102D4000020E75EB030E22BFB61A754640EA9C00D0
:102D50005B084FEA3202B6EB020E75EB030E22BFA0
:102D6000B61A754640EADC0055EA060E18D04FEA5E
:102D7000051545EA16754FEA06164FEAC30343EAFE
:102D800052734FEAC2025FEA1C1CC0D111F4801FCB
:102D90000BD141EA00014FF000004FF0004CB6E7C4
:102DA00011F4801F04BF01430020B4F1FD0C88BF63
:102DB000BCF5E06F3FF6AFAEB5EB030C04BFB6EB6E
:102DC000020C5FEA500C50F1000041EB045170BD61
:102DD0000EF0004E4EEA113114EB5C04C2BFD4EB8E
:102DE0000C0541EA045170BD41F480114FF0000E12
:102DF000013C90E645EA060E8DE60CEA135594EA8E
:102E00000C0F08BF95EA0C0F3FF43BAF94EA0C0F90
:102E10000AD150EA01347FF434AF95EA0C0F7FF405
:102E200025AF104619462CE795EA0C0F06D152EA59
:102E300003353FF4FDAE1046194622E750EA41063D
:102E400018BF52EA43067FF4C5AE50EA41047FF44E
:102E50000DAF52EA43057FF4EBAE12E74FF0FF3CB3
:102E600006E000BF4FF0010C02E000BF4FF0010C84
:102E70004DF804CD4FEA410C7FEA6C5C4FEA430CFD
:102E800018BF7FEA6C5C1BD001B050EA410C0CBF4C
:102E900052EA430C91EA030F02BF90EA020F0020AE
:102EA000704710F1000F91EA030F58BF994208BF15
:102EB00090422CBFD8176FEAE37040F001007047D2
:102EC0004FEA410C7FEA6C5C02D150EA013C07D129
:102ED0004FEA430C7FEA6C5CD6D152EA033CD3D074
:102EE0005DF8040B704700BF8446104662468C466E
:102EF0001946634600E000BF01B5FFF7B7FF0028A1
:102F000048BF10F1000F01BD4DF808EDFFF7F4FFC9
:102F10000CBF012000205DF808FB00BF4DF808ED54
:102F2000FFF7EAFF34BF012000205DF808FB00BF77
:102F30004DF808EDFFF7E0FF94BF012000205DF899
:102F400008FB00BF4DF808EDFFF7CEFF94BF01204E
:102F500000205DF808FB00BF4DF808EDFFF7C4FF47
:102F600034BF012000205DF808FB00BF4FEA41029A
:102F700012F5001215D211D56FF47873B3EB6252CB
:102F800012D94FEAC12343F0004343EA505311F0F2
:102F9000004F23FA02F018BF404270474FF0000084
:102FA000704750EA013005D111F0004008BF6FF0C2
:102FB000004070474FF00000704700BF2DE9F04F10
:102FC00001F10B05162D83B0064627D935F007050C
:102FD00027D4A94225D8304600F0D6FAB5F5FC7FB3
:102FE00026D2C14F4FEAD50C07EBCC03DC689C42DC
:102FF00000F0D2816368E26823F003032344586839
:10300000A16840F00105CA60304691605D6000F043
:10301000BDFA0834204603B0BDE8F08F1025A94260
:10302000D9D900240C232046336003B0BDE8F08FCB
:103030005FEA552C00F08980BCF1040F00F260813A
:103040004FEA951C0CF1380C4FEA4C01A64F07EBE8
:103050008101CC68A14205D10CE0002B79DAE4684B
:10306000A14207D0626822F00302531B0F2BF4DD4C
:103070000CF1FF3C0CF1010C9B4B3C6903F1080E79
:10308000744500F07E81616821F003014A1B0F2A1C
:1030900000F36481002AC3F814E0C3F810E069DA91
:1030A000B1F5007F80F03A81C9088A104FF001081D
:1030B00008FA02F803EBC1015A68886848EA02027C
:1030C000A060E1605A608C60C4604FEAAC030120EC
:1030D000984090425BD8024206D12CF0030C40008D
:1030E00002420CF1040CFAD007EBCC084446E1464E
:1030F000E3689C4207D146E1002A80F25781DB68F1
:103100009C4200F04081596821F003014A1B0F2ABC
:10311000F2DD1C4654F808CFD96845F0010942F0A9
:1031200001081D44C3F804903046CCF80C10C1F8D7
:1031300008C07D613D61C5F80CE0C5F808E0C5F840
:103140000480AA5000F022FA64E77E214FF03F0C81
:103150007CE722445068E368A16840F00105CB6039
:1031600030469960556000F011FA0834204603B0EB
:10317000BDE8F08F21444B68304643F001034B60BB
:1031800000F004FA0834204603B0BDE8F08FBC68B4
:10319000636823F00309A94504D3C5EB09030F2B8A
:1031A00000F39180514B524A1968136805EB010AEC
:1031B000013304EB090B00F061810AF5805A0AF132
:1031C0000F0A2AF47F6A2AF00F0A3046514601920C
:1031D00000F0DEF9B0F1FF3F8046019A00F0018176
:1031E000834500F2FB80DFF814C1C345DCF80030F2
:1031F0005344CCF8003000F04A8112683C49013257
:103200001BBFCBEB080B5B44C1F80080CCF800304F
:1032100018F0070300F01481C3F10802C3F58053CE
:1032200090440833C244CAF30B0ACAEB030A51465E
:103230003046CDF804C000F0ABF9431CDDF804C003
:1032400000F03581C8EB0002524442F00102DCF884
:103250000030BC425344C7F80880CCF80030C8F8AE
:103260000420DFF898A015D0B9F10F0F40F2EB80E1
:103270006168A9F10C0222F0070201F0010142EAA3
:10328000010E0520A1180F2AC4F804E048608860E8
:1032900000F21181174ABC6811688B4288BF136025
:1032A000154A11688B4288BF1360626822F00302DE
:1032B0009542C5EB020301D80F2B04DC304600F029
:1032C00065F90024A6E645F0010243F00103254418
:1032D00062603046BD606B6000F058F908342046EB
:1032E00003B0BDE8F08F00BF24050020A409002032
:1032F00030090020A00900209C090020A809002016
:10330000BCF1140F61D9BCF1540F00F28F804FEA69
:10331000153C0CF16E0C4FEA4C0197E64B0A042B5E
:1033200058D9142B00F2AD8003F15B02500007EB7B
:1033300080008368DFF8B881834200F08A805A6891
:1033400022F00302914202D29B689842F7D1D968D9
:103350007A68E160A3608C60DC60B6E645F0010746
:1033600042F001012544676030465D611D61C5F88A
:103370000CE0C5F808E06960AA50083400F006F9CE
:1033800048E65A68A1E609F1010919F0030F04F1B2
:1033900008047FF4ADAE2DE004F108036469A34294
:1033A00008BF0CF1020C3FF467AE23E619444868ED
:1033B0001C4654F8082FDB6840F001054D6030468C
:1033C000D3609A6000F0E2F824E60CF15B0C4FEA5F
:1033D0004C013BE68A0938325000A8E7BC423FF472
:1033E00002AFBC68626822F0030261E7D8F800808F
:1033F00098457AD11CF0030FA8F108030CF1FF3CAB
:10340000F4D17B6823EA00037B60400098423FF6DA
:10341000BEAE00283FF4BBAE0342CC467FF464AEA0
:10342000400003420CF1040CFAD05DE6BCF5AA7F23
:1034300019D84FEAD53C0CF1770C4FEA4C0105E660
:103440004FF48053EEE60123C8F8043044460022CE
:103450002EE7921001209040D8F80420194602432C
:10346000C8F8042075E740F254539C451BD84FEA36
:10347000954C0CF17C0C4FEA4C01E7E50AF1100A7F
:10348000A3E6542B1FD80A0B6E3250004FE7CBF344
:103490000B0100297FF4B1AE0AEB0901BA6841F0D3
:1034A00001015160F6E6FC214FF07E0CCEE50122D1
:1034B0004FF0000ACBE604F10801304602F046FB6B
:1034C000DAF80030E6E6B3F5AA7F03D8CA0B773204
:1034D00050002CE740F25452934203D88A0C7C32BD
:1034E000500024E7FC207E2221E77B688DE700BFA7
:1034F00024050020F0B4840743D0541E002A3ED097
:10350000CDB2034603E0621E002C38D0144603F807
:10351000015B9A07F7D1032C2AD9CDB245EA0525DC
:103520000F2C45EA054515D9A4F110073F0903F111
:10353000100606EB07161A46156055609560D560B3
:103540001032B242F8D104F00F040137032C03EB20
:1035500007130DD91E462246043A032A46F8045B97
:10356000FAD8221F22F003020432134404F00304A9
:103570002CB1C9B21C4403F8011BA342FBD1F0BC1F
:10358000704714460346C6E7704700BF704700BF48
:1035900038B5074C0023054608462360FEF7F8FEC1
:1035A000431C00D038BD2368002BFBD02B6038BDF6
:1035B000541200200EB4F0B59CB021AC54F8042B8A
:1035C0000E49064623464FF4027E6FF00045086818
:1035D0004FF6FF7702A9029606960194ADF814E023
:1035E00004950795ADF8167000F03AF8029B00229A
:1035F0001A701CB0BDE8F04003B0704720050020F1
:1036000020F0030110F00300C0F1000051F8043B6A
:1036100000F1040C4FEACC0C6FF000021CBF22FA40
:103620000CF213434FF0010C4CEA0C2C4CEA0C4CFE
:10363000A3EB0C0222EA030212EACC1204BF51F8F7
:10364000043B0430F4D013F0FF0F1FBF013013F41C
:103650007F4F013013F47F0F18BF0130704700BF58
:103660002DE9F04FC9B010930C9191460D9002F0E6
:1036700039FB00681590FFF7C3FF0C9C1890A389D5
:103680001E0603D52369002B01F0818038ACA446C7
:1036900008942B9400250024CDE9164500231193AE
:1036A0002D932C931A9319930E93664699F8003034
:1036B000002B00F0F880252B00F0F58009F10102C5
:1036C00001E0252B04D0137814460132002BF8D1E9
:1036D000C9EB04057DB12C9B2D9A01332A44072B9D
:1036E000C6F8009075602D922C9300F3C2800836C6
:1036F0000E9828440E902378002B00F0C2800023FF
:1037000094F801801A468DF88F300F93099304F1D5
:1037100001094FF0FF340A9409F10109A8F12003CF
:10372000582B00F2C583DFE813F06A02C303C3031A
:103730007102C303C303C303C303C303C30314035B
:103740006603C3039D00C000C30378027F027F02AB
:103750007F027F027F027F027F027F027F02C3031C
:10376000C303C303C303C303C303C303C303C30329
:10377000C30390027103C3037103C303C303C303F1
:10378000C3036A03C303C3037800C303C303C303B0
:10379000C303C3035900C303C303AF02C303C3037B
:1037A000C303C303C303C303C303C303C303C303E9
:1037B00037034803710371037103FF024803C30316
:1037C000C3030803C303C5027C002003A303C30390
:1037D000D902C3035F00C303C303DE00DDF824C0C6
:1037E0004CF0100CCDF824C0099CA20600F15483C3
:1037F000099CE30600F1BD85DDF824C01CF0400FF4
:1038000000F0B785DDF840C00025BCF800400CF1A1
:10381000040C0123CDF840C08CE0099D45F0100553
:103820000995DDF824C01CF0200340F02A83DDF860
:1038300024C01CF0100240F0A485DDF824C01CF068
:10384000400300F09E85DDF840C01346BCF8004000
:103850000CF1040C0025CDF840C06BE00F9C1093D8
:1038600064420F94099D45F00405099599F800807C
:1038700052E70D980C992BAA02F002FE40B938AE1F
:1038800036E72D9B23B10D980C992BAA02F0F8FD79
:103890000C9C0E98A38913F0400F18BF4FF0FF3017
:1038A00049B0BDE8F08F4C4625E799F8008009F152
:1038B0000100B8F12A0F01F00C81A8F13003092BA7
:1038C00098BF002101F26B8010F8018B01EB8101A0
:1038D00003EB4101A8F13003092BF5D941EAE1716D
:1038E0000A9181461AE7099DA14CAF061A948DF8FA
:1038F0008F2040F1D181DDF840C00CF1070323F0A7
:10390000070303F108041094D3E90045DDF824C04F
:103910001CF0010F00F0628454EA050000F05E84A0
:1039200030234CF0020C8DF890308DF89180CDF85A
:1039300024C002234FF0000A8DF88FA00A990029B5
:1039400005DBDDF824C02CF0800CCDF824C054EA4F
:10395000050040F0C5820A99002940F0C182002B81
:1039600040F03884DDF824C01CF0010F00F03284F0
:1039700048AF3023089D07F8413DEC1BDDF828C017
:1039800000256445A8BFA446CDF82CC01495BAF113
:10399000000F02D00B9D01350B95099B13F002031C
:1039A000129302D00B9D02350B95DDF824C01CF05C
:1039B000840CCDF84CC040F090820F9DDDF82CC0F7
:1039C000CCEB050BBBF1000F40F38782BBF1100F6E
:1039D0002D992C9ADFF8A0A12CDD1B973046574675
:1039E0001025CA460C9EA1460D9C06E0ABF1100BBB
:1039F000BBF1100F00F1080017DD01321031072A6A
:103A00002D912C9207604560F0DD204631462BAAAF
:103A100002F036FD00287FF43BAFABF1100BBBF199
:103A2000100F2D992C9A38A8E7DC4C46D146BA469F
:103A30001B9F064601320BEB010C072ACDF8B4C0E0
:103A40002C9286E8000C00F31A849DF88FA00836AB
:103A5000BAF1000F0FD02C9B0CF1010C01330DF1CA
:103A60008F010122072BCDF8B4C02C9386E8060005
:103A700000F3A4830836129B73B12C9B0CF1020C4B
:103A8000013324A90222072BCDF8B4C02C9386E879
:103A9000060000F387830836139D802D00F0CA824C
:103AA0000A9DC4EB050ABAF1000F3BDDBAF1100F15
:103AB0002C9B304D2BDD0A9432464FF0100B2E46D6
:103AC00061460D9C0C9D06E0AAF1100ABAF1100F98
:103AD00002F1080217DD01331031072B2D912C93D1
:103AE00082E84008F0DD204629462BAA02F0C8FCF7
:103AF00000287FF4CDAEAAF1100ABAF1100F2D996B
:103B00002C9B38AAE7DC0A9C35468C4616460133C6
:103B1000D444072BCDF8B4C02C9386E8200400F3DE
:103B200035830836099DED0500F124822C9BA444C1
:103B30000133072BCDF8B4C0376074602C9300F3C9
:103B40000F830836099C630749D50F9D0B982C1AE3
:103B5000002C44DD102C2C9BDFF81CA02BDD5746DD
:103B600010256246DDF83080DDF834A00BE000BFA0
:103B7000647100083071000884710008103C102C3A
:103B800006F1080615DD01331032072B2D922C9318
:103B900037607560F2DD504641462BAA02F070FC9A
:103BA00000287FF475AE103C102C2D9A2C9B38AE5B
:103BB000E9DC9446BA460133A444072BCDF8B4C0DF
:103BC0002C93C6F800A0746009DD0D980C992BAAFF
:103BD00002F056FC00287FF45BAEDDF8B4C00E9C0A
:103BE0000B980F9DA842ACBF241864190E94BCF129
:103BF000000F40F0C18200232C9338AE56E599F8AF
:103C00000080002A7FF488AD202285E5099D45F0DB
:103C10000105099599F800807EE5099D45F080052C
:103C2000099599F8008077E50024A8F130030F94F6
:103C3000214619F8018B01EB810103EB4101A8F149
:103C40003003092BF5D90F9168E5DDF824C08DF814
:103C50008F204CF0100CCDF824C0099CA50640F133
:103C6000B280109DE91D21F00701D1E90023083140
:103C7000109114461D46002A73F1000CC0F2948383
:103C80009DF88FA0012359E6099DB64CAF068DF82B
:103C90008F201A943FF52FAE099DED0640F1438425
:103CA000DDF840C00025DCF800400CF1040CCDF834
:103CB00040C02BE6DDF824C08DF88F201CF0200FCB
:103CC00000F04084109C21680E9CE5172B46109D47
:103CD000224604351095C1E90023E7E4109C4FF01B
:103CE000000A27688DF88FA0251D002F00F0E985B8
:103CF0000A9C3846002CC0F29B855146224601F0B2
:103D0000F5FF002800F013860A9CC01BA042B8BF34
:103D10000446109524EAE475CDF828A0CDF850A00B
:103D20000B959DF88FA032E6DDF824C04CF0400CD6
:103D3000CDF824C099F80080EEE499F800804B4655
:103D4000B8F16C0F00F07F84099D45F010050995CE
:103D5000E2E4109C109D24682B1D002C0F94FFF6AC
:103D60007DAD109399F80080D6E4109BDDF824C057
:103D7000109D7D4804351C684FF0780830234CF0C6
:103D8000020C10958DF89030CDF824C000258DF8E8
:103D900091801A900223CDE5109B109D1A68012492
:103DA000002304359A460B948DF8B82010958DF8B1
:103DB0008F300A9314932EAFEFE5099C8DF88F2076
:103DC000A5063FF54EAFDDF824C01CF0100F40F003
:103DD000DF82DDF824C01CF0400F00F0D982DDF84E
:103DE00040C0BCF900400CF1040CE51722462B46FC
:103DF000CDF840C03FE799F800802B228CE4099D64
:103E000045F00805099599F8008085E4109D8DF826
:103E10008F20EB1D23F0070303F1080CCDF840C001
:103E2000D3E90045CDE91645DDE91601FEF724FC8E
:103E30000128DDE9160140F05C8300220023FFF732
:103E40006DF8002840F063859DF88FA003250B9541
:103E5000099D464F25F08005454B00240995002516
:103E60000A94B8F1470FD8BF1F46032414958EE576
:103E7000DDF824C04CF0200CCDF824C099F8008067
:103E80004AE4109CE31D23F0070303F10805109595
:103E9000D3E9004500234DE5109DEB1D23F00703FA
:103EA00003F1080CD3E90045CDF840C0012341E5FA
:103EB0008DF88F20B8F1000F3FF4E3AC00234FF0F2
:103EC000010C9A46CDF82CC08DF8B8808DF88F3053
:103ED0000A93149364462EAF5FE5DDF8B4C0B7E5EE
:103EE000012B00F0EC80022B0DF1DF0318D1DDF87F
:103EF00068C0194604F00F0022091CF8000042EACD
:103F000005722B09087052EA03000F4614461D463D
:103F100001F1FF31EED1089DCDE91E23EC1B2DE50B
:103F2000E00840EA457004F00702E908303250EA40
:103F3000010C1F461A7004460D4603F1FF33EFD102
:103F4000099CCDE91C01E007394640F1C180302AC7
:103F500000F0BE80089D1F463023EC1B01F8013C99
:103F60000CE500BF5071000864710008447100083E
:103F700040710008B8F1650F40F3AD80DDE916012E
:103F800000220023CDF81CC0FEF7BEFFDDF81CC0E8
:103F9000002800F026812C9BAA4901330CF1010C6A
:103FA0000122072BCDF8B4C02C9386E8060000F35D
:103FB000ED820836259B119CA34203DB099DEC078B
:103FC0007FF5C0AD2C9B189C0133159DA444072B95
:103FD000CDF8B4C0356074602C9300F33E8308368E
:103FE000119D6C1E002C7FF7ADAD102C2C9B964DB7
:103FF00040F3978110276246DDF83480DDF830A069
:1040000004E00836103C102C40F38A810133103252
:10401000072B2D922C9386E8A000F2DD40465146F6
:104020002BAA02F02DFA00287FF432AC2D9A2C9B9B
:1040300038AEE7E70F9D0B98C0EB050ABAF1000F09
:104040007FF72EADBAF1100F2C9B7F4D2BDD129414
:1040500032464FF0100B2E4661460D9C0C9D06E03B
:10406000AAF1100ABAF1100F02F1080217DD0133AC
:104070001031072B2D912C9382E84008F0DD20466B
:1040800029462BAA02F0FCF900287FF401ACAAF122
:10409000100ABAF1100F2D992C9B38AAE7DC129C5C
:1040A00035468C4616460133D444072BCDF8B4C0B0
:1040B0002C9386E8200400F30F820836F0E4002DEC
:1040C00008BF0A2C80F03881303448AF07F8414DE2
:1040D000089DEC1B52E4119C012C2C9C40F3D281D6
:1040E00001340CF101030122072C2D9337602C942D
:1040F000726000F3D8810836159DDDF860800134C8
:104100003560189D9844072CCDF8B4802C947560C8
:1041100000F3D5810836DDE9160100220023FEF701
:10412000F3FE119D002840F0B9806B1E0134013769
:104130009844072C2C94CDF8B4803760736000F35A
:10414000E2800836DDF864C00134199DC44427AB11
:10415000072CCDF8B4C02C9486E828007FF7F1AC8A
:104160000D980C992BAA02F08BF900287FF490ABE4
:10417000DDF8B4C038AEE5E40D980C992BAA02F036
:104180007FF900283FF437ADFFF782BB0D980C99FB
:104190002BAA02F075F900287FF47AABDDF8B4C0E1
:1041A00038AEBFE40D980C992BAA02F069F90028EB
:1041B0007FF46EABDDF8B4C038AE6DE40D980C99A9
:1041C0002BAA02F05DF900287FF462ABDDF8B4C0E1
:1041D00038AE50E40A9C38AFFFF7D0BB0223FFF79C
:1041E000A9BB259B002B40F3DD81119C149DDDF8BC
:1041F00044A0AC42A8BF2C46002CBA440BDD2C9B3B
:10420000A4440133072BCDF8B4C0376074602C93FD
:1042100000F31E830836149D24EAE4742C1B002C42
:1042200040F3D780102C2C9B074D40F3A3810A97B5
:104230004FF010082F4662462546DDF834B00C9C3E
:1042400009E000BF80710008307100080836103D99
:10425000102D40F38B8101331032072B2D922C93BC
:1042600086E88001F2DD584621462BAA02F008F9C3
:1042700000287FF40DAB2D9A2C9B38AEE7E70D9804
:104280000C992BAA02F0FCF800287FF401AB9DF8F2
:104290008FA0DDF8B4C038AEFFF7DABB6F1E002F79
:1042A0007FF750AF102FAE4D23DD43464FF0100A7D
:1042B000DDF83480DDF830B004E0103F102F06F157
:1042C000080615DD01341033072C2D932C9486E855
:1042D0002004F2DD404659462BAA02F0D1F800280E
:1042E0007FF4D6AA103F102F2D9B2C9C38AEE9DC12
:1042F00098460134B844072CCDF8B4802C9486E855
:10430000A0007FF71EAF0D980C992BAA02F0B8F809
:1043100000287FF4BDAADDF8B4802C9C38AE11E7EC
:1043200094460133A444072BCDF8B4C02C933560D8
:1043300074607FF706AC13E70DF1DF0B20462946CA
:104340000A22002302F092FB30328BF80020204634
:1043500029460A22002302F089FB04460D4654EA4E
:10436000050C5F460BF1FF3BE8D1089DEC1BFFF706
:1043700005BB109D01232C68043510950025FFF71F
:10438000D9BA109D2C68043510950025FFF7D2BAD4
:10439000109D2C6804351095E51722462B46002AFF
:1043A00073F1000CBFF66CAC4FF02D0A644265EB64
:1043B00045058DF88FA00123FFF7C0BA0D980C9921
:1043C0002BAA02F05DF800287FF462AADDF8B4C0E1
:1043D00038AE149D259C2F44119DAC4242DB099DB3
:1043E000E9073FD41198C7EB0A05041BAC42B8BFDC
:1043F0002546002D0BDD2C9BAC440133072BCDF85B
:10440000B4C0376075602C9300F34C82083625EAFF
:10441000E575641B002C7FF795AB102C2C9B504D41
:104420007FF77FAF10276246DDF83480DDF830A0DB
:1044300004E00836103C102C7FF772AF01331032C5
:10444000072B2D922C9386E8A000F2DD40465146C2
:104450002BAA02F015F800287FF41AAA2D9A2C9B9B
:1044600038AEE7E7189D2C9BAC44159D01333560B1
:10447000189D072BCDF8B4C075602C9300F3F48120
:104480000836AFE7099DEA073FF52AAE01340CF183
:1044900001080123072CCDF8B4802C943760736099
:1044A0007FF74FAE2FE70D980C992BAA01F0E8FF8C
:1044B00000287FF4EDA92D9B2C9C38AE1CE60D98AE
:1044C0000C992BAA01F0DCFF00287FF4E1A9DDF8AC
:1044D000B4802C9C38AE1EE60D980C992BAA01F0E6
:1044E000CFFF00287FF4D4A9DDF8B4C038AEFFF7C1
:1044F000D7BAFEF7C1F8002840F0BB80099C194FDD
:10450000194B4FF0030C24F0800409940A90CDF865
:104510002CC01490B8F1470FD8BF1F4664469DF8D1
:104520008FA0FFF734BA099C640640F15081DDF892
:1045300040C00025BCF800400CF1040CCDF840C090
:10454000FFF7E4B9DDF824C01CF0100F00F046813D
:10455000109C0E9D2368043410941D60FFF7A6B8CC
:10456000307100084C710008487100082C463D4627
:104570000A9F94460133A444072BCDF8B4C02C9372
:10458000356074603FF71AAF083622E70D980C9932
:104590002BAA01F075FF00287FF47AA9DDF8B4C0DA
:1045A00038AE07E52C9AB74901320CF1010C012015
:1045B000072ACDF8B4C02C923160706000F3F78008
:1045C00008361C462CB9119D1DB9099DE8077FF5D9
:1045D000B9AA2C9B159D189901333560189D61442B
:1045E000072B2D9175602C9300F3DE8106F10802F4
:1045F0006442002C40F30B81102CA34D40F3488102
:10460000A34610260C46DDF83480DDF830A006E025
:104610000832ABF1100BBBF1100F40F337810133BF
:104620001034072B2D942C9382E86000F0DD404677
:1046300051462BAA01F024FF00287FF429A92D9CC4
:104640002C9B38AAE5E7099C09F1010944F02004F4
:10465000099493F80180FFF75FB80D980C992BAA85
:1046600001F00EFF00287FF413A9DDF8B4C038AEC6
:10467000B6E40A9D28F0200A013500F0A580BAF1C1
:10468000470F04D10A9D002D08BF01250A95DDF8CA
:1046900024C0DDE916234CF4807C002BCDF848C003
:1046A000C0F29C81DDE91645CDE920454FF0000BB5
:1046B000B8F1660F00F09B81B8F1460F00F0A981B8
:1046C000BAF1450F0ABF0A9C0A9D651C022025A964
:1046D00026AA29AB8DE821000392049302910D983C
:1046E000DDE9202300F0C8FAB8F1670F074602D0D1
:1046F000B8F1470F05D1DDF824C01CF0010F00F020
:104700009C81BAF1460F07EB050400F01C81DDE93E
:10471000200100220023FEF7F7FB002840F005816E
:10472000299B9C4206D930215A1C29921970299B39
:104730009C42F9D8DB1BBAF1470F119300F0ED80D2
:10474000B8F1650F40F3F281B8F1660F00F06881AF
:10475000259C1494119C149DAC4200F33281DDF829
:1047600024C01CF0010F40F0AD8125EAE5732C4612
:104770004FF06708BBF1000F40F0B280129D0B9321
:104780000995CDF828B09DF88FA0FFF700B90D98D6
:104790004021FEF713FC20602061002800F0BF815B
:1047A000DDF830C04023CCF81430FEF76FBF0D9811
:1047B0000C992BAA01F064FE00287FF469A8259CBF
:1047C000DDF8B4C038AEFDE606240A945FE7109D1C
:1047D0002C68043510950025FFF798B8DDF824C043
:1047E0001CF0400F00F08780109C0E9D236804345D
:1047F00010941D80FEF75ABF0D980C992BAA01F05A
:104800003FFE00287FF444A82D992C9B38AADDF8A0
:1048100044C00133119C8C44072BCDF8B4C02C93B9
:10482000176054603FF79CAC02F10806FFF78AB9A5
:10483000CDF828A0FEF7E4FE10950A9D20EAE07C62
:104840000446CDF82CC014959DF88FA0FFF79FB8B3
:104850000D980C992BAA01F013FE00287FF418A8DC
:10486000DDF8B4C038AED6E40D980C992BAA01F04F
:1048700007FE00287FF40CA8259CDDF8B4C038AEF4
:10488000B0E500BF807100083071000821465C4629
:1048900001332144072B2D912C9315605460ABDC20
:1048A0000832B4E70D980C992BAA01F0E9FD002815
:1048B0007EF4EEAF259C1199DDF8B4C00C1B38AE28
:1048C000A5E50A9CBA46062C28BF062424EAE47C07
:1048D0000A9714971095CDF82CC0974FFFF757B84B
:1048E000129D4FF02D0A099500250B938DF88FA08E
:1048F0000A95FFF74FB8DDF840C00E9CDCF8003099
:104900000CF1040CCDF840C01C60FEF7CFBE4FF098
:104910002D0A8DF88FA0FFF799BA259BDC1C19DBB7
:104920000A9C9C4216DB149314E7234602E724EA10
:10493000E47CCDF82CC00A9C10950A9014909DF848
:104940008FA0FFF724B83B78302B00F0AD80259D79
:104950002C44DCE6A8F10208591E00292591BABFB3
:1049600049422D232B2309298DF89C808DF89D30F9
:1049700065DC302330318DF89E308DF89F1028ABE8
:10498000119D27AA119C9A1A012D1992144440F3E3
:10499000B7800134002524EAE4731495EAE6002484
:1049A00081460A94FEF7BABE0D980C992BAA01F025
:1049B00067FD00287EF46CAF259C2D992C9B38AAAE
:1049C00016E6149C119D002CD4BFC4F102040124EE
:1049D0002C4424EAE4734FF06708CBE61799169845
:1049E00001F10041209021914FF02D0B60E60A9DCE
:1049F000032025A926AA29AB0195009003920493D0
:104A000002910D98DDE9202300F036F90A9D074652
:104A100077E60A9C032025A926AA29AB0194ECE796
:104A2000259D0A9C002D149563DDB4BB099DE80704
:104A300033D4149C24EAE4739CE6299B7AE60DF1B6
:104A4000AA023E4DCB1785FB0150C3EBA00000EB43
:104A50008003A1EB43010928134601F130021A70CB
:104A6000014603F1FF32ECDC00F130010DF1AB0443
:104A7000C9B2944203F8011C5AD90DF19D001A469F
:104A800001E012F8011BA24200F8011FF9D10DF557
:104A9000907CC3EB4C03F63B72E70A9D6C1C149DA3
:104AA0002C4424EAE47365E6DDE9200100220023BA
:104AB000FEF72AFA00287FF44AAFC5F101052595D3
:104AC0002C4424E6149D4FF067086C1C24EAE47320
:104AD00050E6109DDDF840C02D680CF10403002D58
:104AE00099F801800A9510938146BEF615AEFEF73F
:104AF00010BE7CB9099DE9070CD401231C4639E698
:104B0000DDF824C01CF001037FF443AF149324EAC2
:104B1000E4732FE60A9DAC1C24EAE4732AE60D9D9B
:104B20000C232B604FF0FF30FEF7BABE259B13E736
:104B30000DF19E0324E700BF787100086766666682
:104B40002DE9F04F03690D6983B09D42834600F360
:104B50008C80013D01F1140400F1140A54F8252061
:104B60005AF825300132B3FBF2F8AA0091460092C0
:104B70005244A1440192B8F1000F3ED000263046C5
:104B8000224653468C4652F8047B19681FFA87FE6A
:104B90003F0C0EFB086E07FB08F606EB1E461FFADD
:104BA0008EFECEEB000E8FB2B0B27744C0EB114058
:104BB00000EB2740BFB247EA0047914543F8047B2A
:104BC0004FEA20404FEA1646DDD2009A61465AF875
:104BD000023093B9019A131F9A450CD252F8043C43
:104BE0004BB9A2F1080302E01A68043B1AB99A45CE
:104BF00005F1FF35F8D3CBF81050584601F052FBC1
:104C000000282EDB08F101085346002254F8046BFB
:104C10001868B1B2511A87B2360C3944C6EB10404D
:104C200000EB214289B241EA0241A14543F8041B4D
:104C30004FEA2242EAD25AF825200AEB850382B9CC
:104C40001A1F92450BD253F8042C42B9083B02E0DC
:104C50001A68043B1AB99A4505F1FF35F8D3CBF829
:104C60001050404603B0BDE8F08F002003B0BDE80F
:104C7000F08F00BF000000002DE9F04F016C9BB0E9
:104C8000044692469B46279D41B1436C01229A40BF
:104C90004B608A6001F010F900232364BBF1000F20
:104CA000D94633DB00232B60A54B1A4609EA0303E0
:104CB000934214D05046594600220023FEF724F9AF
:104CC000804648B3269E289D01233360002D00F0C6
:104CD000CA809C48286001381BB0BDE8F08F269D33
:104CE00042F20F732B60BAF1000F00F0A5809648D6
:104CF000289E002EF0D0C378002B00F0B68000F183
:104D00000803289D2B601BB0BDE8F08F01232BF01A
:104D100000492B60CB46C7E719AA18AB8DE80C00F9
:104D2000204652465B4601F04DFB5FEA19550A905A
:104D300040F08B80189F199D6FF482633D449D4223
:104D4000C0F295821F3305F212425B1B09FA03F38E
:104D50002AFA02F243EA0200FDF7F8FD0126013DBE
:104D6000B846A1F1F87116960022784BFDF7B0FC19
:104D70006DA3D3E90023FDF75FFE6DA3D3E9002304
:104D8000FDF7A8FC064628460F46FDF7EFFD6AA38F
:104D9000D3E90023FDF750FE02460B463046394664
:104DA000FDF798FC06460F46FEF7E0F839460790F7
:104DB000002230460023FEF7B1F8002840F0298297
:104DC000079E162E00F222826149524601EBC6016F
:104DD0005B46D1E90001FEF7BFF8002800F04C82E5
:104DE000013E079600260E96C5EB0805013D069587
:104DF00000F1268200250895079E002EC0F217823A
:104E0000069D0D963544002606950C96249D092D89
:104E10002DD8052DC4BF043D2495249EC8BF002570
:104E2000A6F10203D8BF0125032B22D8DFE813F037
:104E3000B7039E02C0039A04464A434BC9F31300CA
:104E400000280CBF1046184652E7CBF3130343F07B
:104E50007F51CDF858805046A5F2FF3541F44011FE
:104E6000DDF8608080E73C4836E7C31C49E7002551
:104E70002495002565642946204600F0F7FF4FF091
:104E8000FF390126099025952064CDF83C900B96BA
:104E9000199B002BC0F2D280079E0E2E00F3CE800D
:104EA0002B4B03EBC603D3E90001CDE9040125999F
:104EB0000029C0F28083DDE9042359465046FDF7FE
:104EC000E5FEFEF753F80546FDF750FDDDE9042346
:104ED000FDF7B2FD02460B4650465946FDF7F8FB7A
:104EE000099A05F13003B9F1010F06460F46137018
:104EF00002F1010B64D00022184BFDF79DFD00224A
:104F0000002306460F46FDF7FFFF002840F0818092
:104F1000DDF82480099DC844DDE904AB05F10209F0
:104F2000039428E0AFF3008061436F63A787D23F0B
:104F3000B3C8608B288AC63FFB799F501344D33F88
:104F40000000F07F81710008A07100080000F83FA8
:104F5000B0710008947100088071000800002440BE
:104F6000FDF76AFD0022002306460F46FDF7CCFF41
:104F7000002840F0C18352465B4630463946FDF773
:104F800085FEFDF7F3FF0546FDF7F0FC52465B4654
:104F9000FDF752FD02460B4630463946FDF798FBB9
:104FA00005F1300EC14509F801EC4C4606460F46A6
:104FB0004FF00002A74B09F10109D1D1A346039C90
:104FC00032463B4630463946FDF784FB06460F46DF
:104FD0003246DDE904013B46FDF7A0FF40B9DDE9BB
:104FE000040132463B46FDF78FFF90B1EB0710D529
:104FF0001BF8015C099A05E09A4200F0298413F835
:10500000015C9B46392D0BF1FF33F5D06A1CD2B2FF
:105010001A7020460A9900F04FFF079E269D731CC8
:10502000289E00228BF800202B60002E00F02583A4
:105030000998C6F800B01BB0BDE8F08F0B9D002D9D
:1050400000F00381249E012E40F3DC820C9E09F1C6
:10505000FF37BE42C0F28983F71BB9F1000FC0F2DF
:105060008784089D4B46089E20461E440896069E4F
:1050700001211E44069600F0C1FF064665B1069860
:10508000002809DD03460899AB42A8BF2B46C91A80
:10509000C01A0891ED1A06900C9A002A1DDD0B9B90
:1050A000002B00F05883002F11DD31463A46204690
:1050B00001F04CF8064631460A9A204600F0A8FF57
:1050C0000A998046204600F0F7FECDF82880DDF8EA
:1050D00030E0BEEB070240F08F822046012100F055
:1050E0008DFF80460D98002805DD414620460D9A2B
:1050F00001F02CF880462499012940F3C182002751
:105100000D98002840F0AF820120069B034413F065
:105110001F0300F0A180C3F12002042A40F3B784EA
:105120000899069AC3F11C0319441A4408911D44B6
:1051300006920899002905DD0A99089A204601F08F
:1051400053F80A90069A002A04DD4146204601F0F1
:105150004BF880460E9B002B40F06A82B9F1000F9D
:1051600040F3A6820B98002840F088800B9D0A9F90
:10517000DDF824B006E0394620460A22002300F07C
:10518000A5FE074638464146FFF7DAFC30300BF8FB
:1051900005000135A945EEDCDDF824B082460A970A
:1051A000B9F1010FACBFCB440BF1010B00250A99FB
:1051B0000122204601F018F841460A9001F072F8E9
:1051C000002840F309831BF8012C099905E0994256
:1051D00000F08B8213F8012C9B46392A0BF1FF3328
:1051E000F5D001321A704146204600F065FE002ECF
:1051F0003FF40FAF2DB1B54203D02946204600F051
:105200005BFE3146204600F057FE02E701260E966F
:10521000EAE50798FDF7AAFB32463B46FDF774FE28
:1052200000287FF4CDAD079E013E0796C8E5079E96
:10523000089DAD1B0895754200260C950D96E5E579
:105240006D42002608950696D6E50C9F089D0B9E9C
:1052500014E700BF000024401C23DDF820E006987E
:105260009E441844CDF820E01D44069061E7A7480D
:10527000401B0AFA00F06FE50E90B5E5002D05DD44
:1052800031462A46204600F0AFFF0646002F40F088
:10529000E9823746099D09984D4408950AF00105B1
:1052A0000B95DDF82890451C0AE000F00FFE39460A
:1052B00006460A222046002300F008FE0746013574
:1052C00041464846FFF73CFC31468346484600F0DD
:1052D000E9FF414603903A46204601F007F8C268CC
:1052E000691E03460BF1300A0691002A40F09381B3
:1052F00019464846029300F0D5FF029B0246194624
:105300002046029200F0D8FD029A2AB9249B1BB9CC
:105310000B98002800F09383039B002BC0F234828B
:1053200005D1249818B90B99002900F02D82002A84
:1053300000F3AC82DDF820E005F801AC7545AB4622
:1053400000F0B48249460A220023204600F0BEFD48
:10535000BE428146314620464FF00A024FF000031C
:10536000A3D100F0B3FD06460746A8E700260B963A
:10537000079EDDF894E0B6440EF10109B9F1000F83
:10538000CDF83CE04E4640F350810021172E616479
:105390000AD9012204235B0003F11400B042114634
:1053A00002F10102F7D96164204600F05FFD0E2E84
:1053B000099020643FF66CAD002D3FF469AD079D68
:1053C000CDE912AB002D40F31C82514B05F00F02CA
:1053D00003EBC2032D11D3E90067EB0640F1CD8149
:1053E0004C4B50465946D3E90823FDF74FFCCDE915
:1053F000100105F00F054FF003088DB1DFF814A17F
:1054000030463946EE0705D5DAE9002308F10108F0
:10541000FDF712FB6D100AF1080AF3D106460F469C
:10542000DDE9100132463B46FDF730FC82468B46F3
:105430000E9D45B1504659460022374BFDF76EFD93
:10544000002840F0AA824046FDF790FA52465B469B
:10545000FDF7F2FA0022314BFDF73CF90646A1F1C7
:105460005077B9F1000F00F05A81079DC846179593
:105470000B9D002D00F02382254B002003EBC80379
:1054800053E902232649FDF701FC32463B46FDF76E
:105490001FF9CDE9100159465046FDF767FD054655
:1054A000FDF764FA02460B4650465946FDF710F9DF
:1054B0003035099ECDE90401DDE90423DDE9100161
:1054C000EDB2357006F1010BFDF746FD002840F006
:1054D000AB82DDE9042300200F49FDF7F9F802460D
:1054E0000B46DDE91001FDF737FD002840F0A282F0
:1054F000B8F1010F40F38181B044CDF85090A2463D
:10550000C146DDE90467DDE9104519E0EEFBFFFF68
:10551000B0710008787200080000F03F00001C40E5
:105520000000E03F0020A849FDF7D2F822462B46B4
:10553000FDF7F4FC002840F07B82CB4500F05A8157
:10554000204629460022A14BFDF776FA00229F4B08
:1055500004460D4630463946FDF76EFA0F460646BC
:10556000FDF704FD8046FDF701FA02460B46304682
:105570003946FDF7ADF808F130085FFA88F82246A1
:105580002B460BF8018B06460F46FDF7C7FC32464B
:105590003B460028C6D0179E5446079639E500269C
:1055A0000B96259800283CDD06460F908146ECE6D8
:1055B00001260B96F5E7B9F1000F3FF77CAC40F000
:1055C000C680DDE904010022814BFDF735FA524621
:1055D0005B46FDF7B7FCC8464E4600287CD0259DAB
:1055E000DDF824B0ED4307954146204600F064FC09
:1055F000002E7FF406AE0CE50A99204600F0A6FDC9
:105600000A906AE5169D002D00F0B88103F233433D
:105610000C9F089D27E50146204600F04DFC012225
:105620007AE6012625960F96B14600216164BBE615
:105630000A98414600F036FE0028BFF68FADDDF82F
:105640001CE00A990EF1FF3E20460A220023CDF805
:105650001CE000F03BFC0A900B98002840F0098207
:10566000DDF83C907AE5D8F8103008EB8303186930
:1056700000F076FCC0F1200047E50998FFF72CBB4D
:10568000BAF1000F7FF43BADCBF31303002B40F0D6
:105690007C812BF000473F0D3F05002F3FF430ADDC
:1056A000089A069B0132013308920693012727E5E9
:1056B000249902297FF756ADB9F1000F8FD14146E9
:1056C0004B460522204600F001FC804641460A98E0
:1056D00000F0E8FD002882DD079D312301350795A4
:1056E000099D2B7005F1010B7EE70798099931237D
:1056F000013007900B7076E5A346039C89E4404691
:10570000FDF734F902460B4650465946FDF794F929
:105710000022304BFCF7DEFF0646A1F150775046E1
:10572000594600222A4BFCF7D3FF32463B468246BD
:105730008B46FDF711FC002840F0BD80324607F192
:10574000004350465946FDF7E9FB002855D04FF07D
:105750000008464643E70A990C9A204600F0F6FCFA
:105760000A90BAE401260B9602E60C9D0D9E7B1B67
:105770001E440C970D9600276FE4DDE912014FF0EF
:105780000208CDE9100138E6002ACDF82890D94664
:1057900011DD0A990122204600F026FD41460A90BB
:1057A00000F080FD002840F35D81BAF1390F00F070
:1057B0001B8109F1310A069B354683F800A003F1ED
:1057C000010B3E460FE500BF0000F03F0000244003
:1057D0000000144000001C4003D11AF0010F7FF4B8
:1057E000F2AC5B4613F8012C9B46302A03F1FF33E1
:1057F000F8D0F8E4DDF850905446DDE912ABFFF73D
:1058000047BB079E7542002D00F0C280A34B05F0F8
:105810000F0203EBC203D3E90023DDE91201FDF718
:105820000BF92D1182468B4600F02E819C4E4FF0D5
:105830000208EA0705D5D6E9002308F10108FDF7BB
:10584000FBF86D1006F10806F3D182468B46EFE5B2
:10585000079E099D30222A700136312207961A7060
:10586000FFF7D7BB7168204600F000FB336905469F
:105870009A1C920006F10C010C3000F081FA2046CF
:105880002946012200F0B0FC074603E5BAF1390FC2
:10589000CDF8289000F0A880069D0AF101032B7036
:1058A0003546069E06F1010B3E469CE43546CDF892
:1058B00028903E467BE44FF0000846460CE77749C7
:1058C00008F1FF3501EBC50132463B46D1E9000145
:1058D0001095FDF7B1F8CDE9140159465046FDF792
:1058E00045FB0546FDF742F802460B465046594631
:1058F000FCF7EEFEDDF824E03035B8F1010F064686
:105900000F468EF800500EF1010B1ED0099D6B1E44
:1059100003EB080A0022634BFDF78EF80F4606469C
:10592000FDF724FB8046FDF721F808F13008024618
:105930000B4630463946FCF7CBFE05F8018F55453E
:10594000E8D1109D06460F46AB440022564BDDE9D8
:105950001401FCF7BFFE32463B46FDF7DFFA002894
:105960004DD0179E099A07961BF8015CFFF74ABBBA
:10597000089E0023C9EB0605FFF775BB189B0C9F1B
:10598000C3F13603089DFFF76EBB5746FFF7B8BB60
:10599000DDE912AB4FF002084AE5B9F1000F3FF420
:1059A000AEAE0F9E002E7FF728AF00223D4B504633
:1059B0005946FDF741F8824608F101008B46FCF795
:1059C000D5FF02460B4650465946FDF735F80022F2
:1059D000364BFCF77FFE079D0646013DA1F150774F
:1059E0001795DDF83C8043E53546069B069E392237
:1059F000327003F1010B3E460999FFF7EEBBDDE97A
:105A0000142300202849FCF763FE32463B46FDF78D
:105A1000A3FA00283FF4F1AE5B4613F8012C9B4635
:105A2000302A03F1FF33F8D0179D0795FFF7F1BA3D
:105A300045465446179E099A0796FFF7E3BABAF10E
:105A4000390FCDF82890CFD0039B3546002B069E0A
:105A5000C8BF0BF1310A86F800A006F1010B3E46E3
:105A6000FFF7C1BB7FF4A7AE1AF0010F3FF4A3AE5E
:105A70009BE6314620460A220023DDF83C9000F0E8
:105A800025FA0646FFF76ABB4FF00208D0E43FF460
:105A900050ABC3F13C03FFF7E0BB00BFB07100089F
:105AA00078720008000024400000E03F00001C4025
:105AB000F8B5234D0F460446FDF766FDAB685E68FA
:105AC00026F00306F11B01F6EF7121F47F6121F04E
:105AD0000F01A1F58057B7F5805F07DB2046002155
